{"abi":[{"type":"constructor","inputs":[{"name":"_nonfungiblePositionManager","type":"address","internalType":"address"},{"name":"_WETH9","type":"address","internalType":"address"}],"stateMutability":"nonpayable"},{"type":"receive","stateMutability":"payable"},{"type":"function","name":"WETH9","inputs":[],"outputs":[{"name":"","type":"address","internalType":"address"}],"stateMutability":"view"},{"type":"function","name":"migrate","inputs":[{"name":"params","type":"tuple","internalType":"struct PulseXV3Migrator.MigrateParams","components":[{"name":"pair","type":"address","internalType":"address"},{"name":"liquidityToMigrate","type":"uint256","internalType":"uint256"},{"name":"percentageToMigrate","type":"uint8","internalType":"uint8"},{"name":"token0","type":"address","internalType":"address"},{"name":"token1","type":"address","internalType":"address"},{"name":"fee","type":"uint24","internalType":"uint24"},{"name":"tickLower","type":"int24","internalType":"int24"},{"name":"tickUpper","type":"int24","internalType":"int24"},{"name":"amount0Min","type":"uint256","internalType":"uint256"},{"name":"amount1Min","type":"uint256","internalType":"uint256"},{"name":"recipient","type":"address","internalType":"address"},{"name":"deadline","type":"uint256","internalType":"uint256"},{"name":"refundAsETH","type":"bool","internalType":"bool"}]}],"outputs":[],"stateMutability":"nonpayable"},{"type":"function","name":"nonfungiblePositionManager","inputs":[],"outputs":[{"name":"","type":"address","internalType":"address"}],"stateMutability":"view"},{"type":"event","name":"MigrationCompleted","inputs":[{"name":"user","type":"address","indexed":true,"internalType":"address"},{"name":"pair","type":"address","indexed":true,"internalType":"address"},{"name":"tokenId","type":"uint256","indexed":false,"internalType":"uint256"},{"name":"liquidity","type":"uint128","indexed":false,"internalType":"uint128"},{"name":"amount0","type":"uint256","indexed":false,"internalType":"uint256"},{"name":"amount1","type":"uint256","indexed":false,"internalType":"uint256"}],"anonymous":false}],"bytecode":{"object":"0x60c060405234801561001057600080fd5b50604051610e5a380380610e5a83398101604081905261002f91610069565b6001600160601b0319606092831b8116608052911b1660a05261009b565b80516001600160a01b038116811461006457600080fd5b919050565b6000806040838503121561007b578182fd5b6100848361004d565b91506100926020840161004d565b90509250929050565b60805160601c60a05160601c610d756100e56000398060a852806105fa5280610651528061078152806107d852508060cc52806102f652806103a652806105255250610d756000f3fe6080604052600436106100385760003560e01c80634aa4a4fc14610044578063b44a27221461006f578063d44f2bf2146100845761003f565b3661003f57005b600080fd5b34801561005057600080fd5b506100596100a6565b6040516100669190610b39565b60405180910390f35b34801561007b57600080fd5b506100596100ca565b34801561009057600080fd5b506100a461009f366004610a52565b6100ee565b005b7f000000000000000000000000000000000000000000000000000000000000000081565b7f000000000000000000000000000000000000000000000000000000000000000081565b60006101006060830160408401610af8565b60ff161180156101235750606461011d6060830160408401610af8565b60ff1611155b6101485760405162461bcd60e51b815260040161013f90610bcd565b60405180910390fd5b80610160013542111561016d5760405162461bcd60e51b815260040161013f90610bf9565b600060646101816060840160408501610af8565b60ff168360200135028161019157fe5b04905060006101a360208401846109cb565b90506001600160a01b0381166323b872dd336101c260208701876109cb565b856040518463ffffffff1660e01b81526004016101e193929190610b67565b602060405180830381600087803b1580156101fb57600080fd5b505af115801561020f573d6000803e3d6000fd5b505050506040513d601f19601f820116820180604052508101906102339190610a15565b61024f5760405162461bcd60e51b815260040161013f90610ba4565b600080826001600160a01b03166327fc84a330336040518363ffffffff1660e01b8152600401610280929190610b4d565b6040805180830381600087803b15801561029957600080fd5b505af11580156102ad573d6000803e3d6000fd5b505050506040513d601f19601f820116820180604052508101906102d19190610ad5565b90925090506102e660808601606087016109cb565b6001600160a01b031663095ea7b37f0000000000000000000000000000000000000000000000000000000000000000846040518363ffffffff1660e01b8152600401610333929190610b8b565b602060405180830381600087803b15801561034d57600080fd5b505af1158015610361573d6000803e3d6000fd5b505050506040513d601f19601f820116820180604052508101906103859190610a15565b5061039660a08601608087016109cb565b6001600160a01b031663095ea7b37f0000000000000000000000000000000000000000000000000000000000000000836040518363ffffffff1660e01b81526004016103e3929190610b8b565b602060405180830381600087803b1580156103fd57600080fd5b505af1158015610411573d6000803e3d6000fd5b505050506040513d601f19601f820116820180604052508101906104359190610a15565b50600060405180610160016040528087606001602081019061045791906109cb565b6001600160a01b0316815260200161047560a0890160808a016109cb565b6001600160a01b0316815260200161049360c0890160a08a01610a6a565b62ffffff1681526020016104ad60e0890160c08a01610a31565b60020b81526020016104c6610100890160e08a01610a31565b60020b815260208101859052604081018490526101008801356060820152610120880135608082015260a00161050461016089016101408a016109cb565b6001600160a01b0316815260200187610160013581525090506000806000807f00000000000000000000000000000000000000000000000000000000000000006001600160a01b03166388316456866040518263ffffffff1660e01b815260040161056f9190610c53565b608060405180830381600087803b15801561058957600080fd5b505af115801561059d573d6000803e3d6000fd5b505050506040513d601f19601f820116820180604052508101906105c19190610a8d565b929650909450925090508187038187038115610758576105e96101a08d016101808e016109f9565b801561063557506001600160a01b037f00000000000000000000000000000000000000000000000000000000000000001661062a60808e0160608f016109cb565b6001600160a01b0316145b156106c757604051632e1a7d4d60e01b81526001600160a01b037f00000000000000000000000000000000000000000000000000000000000000001690632e1a7d4d90610686908590600401610d01565b600060405180830381600087803b1580156106a057600080fd5b505af11580156106b4573d6000803e3d6000fd5b505050506106c2338361094a565b610758565b6106d760808d0160608e016109cb565b6001600160a01b031663a9059cbb33846040518363ffffffff1660e01b8152600401610704929190610b8b565b602060405180830381600087803b15801561071e57600080fd5b505af1158015610732573d6000803e3d6000fd5b505050506040513d601f19601f820116820180604052508101906107569190610a15565b505b80156108df576107706101a08d016101808e016109f9565b80156107bc57506001600160a01b037f0000000000000000000000000000000000000000000000000000000000000000166107b160a08e0160808f016109cb565b6001600160a01b0316145b1561084e57604051632e1a7d4d60e01b81526001600160a01b037f00000000000000000000000000000000000000000000000000000000000000001690632e1a7d4d9061080d908490600401610d01565b600060405180830381600087803b15801561082757600080fd5b505af115801561083b573d6000803e3d6000fd5b50505050610849338261094a565b6108df565b61085e60a08d0160808e016109cb565b6001600160a01b031663a9059cbb33836040518363ffffffff1660e01b815260040161088b929190610b8b565b602060405180830381600087803b1580156108a557600080fd5b505af11580156108b9573d6000803e3d6000fd5b505050506040513d601f19601f820116820180604052508101906108dd9190610a15565b505b6108ec60208d018d6109cb565b6001600160a01b0316336001600160a01b03167f1c4f757147a5807c791ca92e89a8dfe1d8f03e401f9d8f2240cde8c7742c4131888888886040516109349493929190610d0a565b60405180910390a3505050505050505050505050565b6000826001600160a01b03168260405161096390610b36565b60006040518083038185875af1925050503d80600081146109a0576040519150601f19603f3d011682016040523d82523d6000602084013e6109a5565b606091505b50509050806109c65760405162461bcd60e51b815260040161013f90610c26565b505050565b6000602082840312156109dc578081fd5b81356001600160a01b03811681146109f2578182fd5b9392505050565b600060208284031215610a0a578081fd5b81356109f281610d2e565b600060208284031215610a26578081fd5b81516109f281610d2e565b600060208284031215610a42578081fd5b81358060020b81146109f2578182fd5b60006101a08284031215610a64578081fd5b50919050565b600060208284031215610a7b578081fd5b813562ffffff811681146109f2578182fd5b60008060008060808587031215610aa2578283fd5b8451935060208501516001600160801b0381168114610abf578384fd5b6040860151606090960151949790965092505050565b60008060408385031215610ae7578182fd5b505080516020909101519092909150565b600060208284031215610b09578081fd5b813560ff811681146109f2578182fd5b6001600160a01b03169052565b60020b9052565b62ffffff169052565b90565b6001600160a01b0391909116815260200190565b6001600160a01b0392831681529116602082015260400190565b6001600160a01b039384168152919092166020820152604081019190915260600190565b6001600160a01b03929092168252602082015260400190565b6020808252600f908201526e151c985b9cd9995c8819985a5b1959608a1b604082015260600190565b602080825260129082015271496e76616c69642070657263656e7461676560701b604082015260600190565b602080825260139082015272151c985b9cd858dd1a5bdb881d1bdbc81bdb19606a1b604082015260600190565b602080825260139082015272115512081d1c985b9cd9995c8819985a5b1959606a1b604082015260600190565b600061016082019050610c67828451610b19565b6020830151610c796020840182610b19565b506040830151610c8c6040840182610b2d565b506060830151610c9f6060840182610b26565b506080830151610cb26080840182610b26565b5060a083015160a083015260c083015160c083015260e083015160e083015261010080840151818401525061012080840151610cf082850182610b19565b505061014092830151919092015290565b90815260200190565b9384526001600160801b039290921660208401526040830152606082015260800190565b8015158114610d3c57600080fd5b5056fea26469706673582212203bbfa8dca442c626ab4fecfa7fe755eed661eae0501765da500a114b9b7e037564736f6c63430007060033","linkReferences":{}},"methodIdentifiers":{"WETH9()":"4aa4a4fc","migrate((address,uint256,uint8,address,address,uint24,int24,int24,uint256,uint256,address,uint256,bool))":"d44f2bf2","nonfungiblePositionManager()":"b44a2722"},"id":1}